:020000040800F2
:10000000000003203D3E0008873E0008953E0008A2
:100010009B3E0008A13E0008A73E0008000000002B
:10002000000000000000000000000000AD3E0008DD
:10003000BB3E000800000000C93E0008094100085E
:10004000853E0008853E0008853E0008853E000884
:10005000853E0008853E0008853E0008853E000874
:10006000853E0008853E0008853E0008853E000864
:10007000853E0008853E0008853E0008853E000854
:10008000853E0008853E0008853E0008853E000844
:10009000853E0008853E0008853E0008853E000834
:1000A000853E0008853E0008853E0008853E000824
:1000B000853E0008853E0008853E0008853E000814
:1000C000853E0008853E0008853E0008853E000804
:1000D000853E0008853E0008853E0008853E0008F4
:1000E000853E0008853E0008853E0008853E0008E4
:1000F000853E0008853E0008853E0008853E0008D4
:10010000853E0008853E0008853E0008853E0008C3
:10011000853E0008853E0008853E0008853E0008B3
:10012000853E0008853E0008853E0008853E0008A3
:10013000853E0008853E0008853E0008853E000893
:10014000853E0008853E0008853E0008853E000883
:10015000853E0008853E0008853E0008853E000873
:10016000853E0008853E0008C5470008B1470008E5
:10017000314700089D470008853E0008853E00087D
:10018000853E0008853E0008853E0008853E000843
:10019000853E0008853E0008853E0008853E000833
:0C01A000853E0008853E0008853E0008F2
:1001AC0010B5054C237833B9044B13B10448AFF3A5
:1001BC0000800123237010BD5001002000000000BE
:1001CC008C7F000808B5034B1BB103490348AFF300
:1001DC00008008BD00000000540100208C7F000846
:1001EC00034613F8012B002AFBD1181A013870476B
:1001FC0080B483B000AF7860064A7B6843F0BF637D
:10020C0043F40033D36000BF0C37BD465DF8047B6C
:10021C00704700BF00ED00E080B485B000AF78609F
:10022C000023FB730023BB730F237B737B68DB788A
:10023C00002B39D0274BDB68DB431B0ADBB203F006
:10024C000703FB73FB7BC3F10403BB737A7BFB7B60
:10025C0042FA03F37B737B685B781A46BB7B02FA2A
:10026C0003F3FB737B689A787B7B1340DAB2FB7BDE
:10027C001343FB73FB7B1B01FB73174A7B681B78D7
:10028C001344FA7B83F80023134A7B681B785B09C1
:10029C00DBB218467B681B7803F01F03012101FABF
:1002AC0003F342F820300FE00B497B681B785B09A5
:1002BC00DBB218467B681B7803F01F0301229A40BF
:1002CC0000F1200341F8232000BF1437BD465DF830
:1002DC00047B704700ED00E000E100E080B500AF6A
:1002EC0001214FF4000001F019F900214FF4000036
:1002FC0001F014F900BF80BD80B487B000AF786006
:10030C0000237B6100233B610023FB600023BB6067
:10031C00504A504B1B6823F0031323F4F85313601B
:10032C004C494C4B1A687B681B6813430B60494A59
:10033C00484B5B6B23F0070353634649454B5A6BA1
:10034C007B685B6813434B637B685B68002B0CD149
:10035C007B68DB681B027B617B681B691B043B6150
:10036C007B685B691B06FB603AE07B685B68012B72
:10037C000AD17B68DB681B027B617B681B691B04F1
:10038C003B610023FB602BE07B685B68022B0AD18E
:10039C007B68DB685B017B617B681B69DB023B6113
:1003AC000023FB601CE07B685B68032B0CD17B6833
:1003BC00DB685B017B617B681B699B023B617B6833
:1003CC005B69DB03FB600BE07B68DB681B017B611B
:1003DC007B681B691B023B617B685B691B03FB60D1
:1003EC001C481C4B9A6B79693B6919437B689B6869
:1003FC001943FB680B4313438363164A7B689B6961
:10040C00D363144A134B1B6C23F47F5323F03F0329
:10041C00136410490F4B1A6C7B68DB6913430B6434
:10042C007B685B6A1B04BB600A4A0A4B5B6C03F07B
:10043C00404353640748074B5A6C7B68196ABB6886
:10044C000B431343436400BF1C37BD465DF8047B6C
:10045C00704700BF00B0024080B400AF054A054BA6
:10046C001B6843F00103136000BFBD465DF8047BBD
:10047C00704700BF00B0024080B485B000AF786018
:10048C000023FB73084B5A687B681340002B02D087
:10049C000123FB7301E00023FB73FB7B184614372D
:1004AC00BD465DF8047B704700B0024080B485B057
:1004BC0000AF78600023FB60344BFB607B689B795A
:1004CC00002B4FD03149314B1A687B681B68DB43DA
:1004DC0013400B602D492D4B5A687B681B68DB431E
:1004EC0013404B607B681B791A46FB681344FB6016
:1004FC00FB68FA6811687A6812680A431A60234923
:10050C00224B9A687B681B68DB4313408B601F4946
:10051C001E4BDA687B681B68DB431340CB607B683F
:10052C005B79102B0ED11949184B9A687B681B68A4
:10053C0013438B601549154BDA687B681B681343B2
:10054C00CB601DE0114BFB607B685B791A46FB6846
:10055C001344FB60FB68FA6811687A6812680A43F6
:10056C001A600DE07B681B791A46FB681344FB602C
:10057C00FB68FA6811687A681268D2430A401A60FC
:10058C0000BF1437BD465DF8047B7047003C01404A
:10059C0080B483B000AF7860044A7B68536100BFBD
:1005AC000C37BD465DF8047B704700BF003C014032
:1005BC0080B487B000AF786000237B6100233B617F
:1005CC000023FB600023BB607B685A687B689B68D8
:1005DC001A437B68DB681A437B681B691A437B6888
:1005EC005B691A437B689B691A437B68DB691A4316
:1005FC007B681B6A1A437B685B6A13437B617B686D
:10060C001B68002B06D140497B681B687A6941F84E
:10061C00232011E07B68DA697B681B6A1A437B68CC
:10062C005B6A1343FB60384AFB68136036497B688E
:10063C001B687A6941F823207B681B68002B30D13A
:10064C007B689B6A1B685A1E7B689B6A5B68013BD4
:10065C001B011A437B689B6A9B68013B1B021A4374
:10066C007B689B6ADB68013B1B031A437B689B6AB4
:10067C001B69013B1B041A437B689B6A5B69013B4A
:10068C001B051A437B689B6A9B69013B1B06134342
:10069C003B611D497B681B6802333A6941F8232092
:1006AC002CE07B689B6A1B685A1E7B689B6A5B68A4
:1006BC00013B1B011A437B689B6A9B68013B1B0235
:1006CC001A437B689B6A1B69013B1B0413433B6108
:1006DC007B689B6ADB68013B1A037B689B6A5B69DE
:1006EC00013B1B051343BB60074ABB68936006497B
:1006FC007B681B6802333A6941F8232000BF1C3722
:10070C00BD465DF8047B7047400100A080B485B005
:10071C0000AF78600023FB607B681A687B685B68BD
:10072C001A437B689B68013B5B011A437B68DB685F
:10073C005B021343FB60044AFB68136100BF143770
:10074C00BD465DF8047B7047400100A080B483B0C7
:10075C0000AF78600649064B5A697B685B0013430F
:10076C004B6100BF0C37BD465DF8047B704700BF82
:10077C00400100A080B485B000AF786039600023E0
:10078C00FB730023BB607B68102B03D1144B5B689D
:10079C00BB6012E07B68B3F5807F03D1114B5B68C3
:1007AC00BB600AE07B68B3F5805F03D10E4B5B68DE
:1007BC00BB6002E00D4B9B69BB60BA683B681A409A
:1007CC003B689A4202D00023FB7301E00123FB73C8
:1007DC00FB7B18461437BD465DF8047B704700BFA1
:1007EC00600000A0800000A0A00000A0400100A0BC
:1007FC0080B487B000AF7860396000237B61002340
:10080C003B610023FB6000237B6176E001227B6966
:10081C0002FA03F33B613B681A683B691340FB60C7
:10082C00FA683B699A4265D17B681A687B695B0000
:10083C00032101FA03F3DB431A407B681A607B68DF
:10084C001A683B681B7919467B695B0001FA03F354
:10085C001A437B681A603B681B79012B03D03B68F9
:10086C001B79022B2ED17B689A687B695B00032174
:10087C0001FA03F3DB431A407B689A607B689A6841
:10088C003B685B7919467B695B0001FA03F31A43F9
:10089C007B689A607B685A687B699BB21946012316
:1008AC008B40DB431A407B685A607B685B683A6814
:1008BC00927911467A6992B201FA02F292B21A4313
:1008CC007B685A607B68DA687B699BB25B000321AA
:1008DC0001FA03F3DB431A407B68DA607B68DA6861
:1008EC003B68DB7919467B695B0001FA03F31A4319
:1008FC007B68DA607B6901337B617B690F2B85D95F
:10090C0000BF1C37BD465DF8047B704780B483B0D4
:10091C0000AF78600B467B807B687A881A8300BFB7
:10092C000C37BD465DF8047B704780B483B000AFD4
:10093C0078600B467B807B687A885A8300BF0C37C3
:10094C00BD465DF8047B704780B483B000AF78601F
:10095C000B467B8013467B707B78002B03D07B6827
:10096C007A881A8302E07B687A885A8300BF0C3736
:10097C00BD465DF8047B704780B485B000AF7860ED
:10098C000B467B8013467B700023FB600023BB600F
:10099C007A787B8803F007039B0002FA03F3FB6071
:1009AC007B88DB089BB218467B88DB089BB21A4617
:1009BC007B68083253F822207B8803F007039B00E6
:1009CC000F2101FA03F3DB4302EA03017B6800F118
:1009DC00080243F822107B88DB089BB21A467B681E
:1009EC00083253F82220FB681343BB607B88DB087A
:1009FC009BB21A467B680832B96843F8221000BFD4
:100A0C001437BD465DF8047B7047000080B582B09A
:100A1C0000AF78607B68174A93420AD101214FF4EA
:100A2C00001000F09BFD00214FF4001000F096FD2B
:100A3C001CE07B68104A93420AD101214FF48000DC
:100A4C0000F08CFD00214FF4800000F087FD0DE0DC
:100A5C007B680A4A934209D101214FF4000000F04F
:100A6C007DFD00214FF4000000F078FD00BF083739
:100A7C00BD4680BD0054004000580040005C004062
:100A8C0080B58AB000AF786039600023FB84002306
:100A9C007B840423BB84574BFB617B689B88FB8462
:100AAC00FB8C23F03F03FB8407F10C03184600F08A
:100ABC00EFFB7B69FB61FB694F4AA2FB03239B0C99
:100ACC007B84FA8C7B8C1343FB847B68FA8C9A8036
:100ADC007B681B889BB223F001039AB27B681A8057
:100AEC000023FB843B681B68444A934215D83B683F
:100AFC001B685B00FA69B2FBF3F3BB84BB8C032B62
:100B0C0001D80423BB84FA8CBB8C1343FB847B8CF1
:100B1C0001339AB27B681A8440E03B68DB884BF661
:100B2C00FF72934209D13B681A6813465B00134469
:100B3C00FA69B2FBF3F3BB840EE03B681A68134608
:100B4C009B0013449A001344FA69B2FBF3F3BB8481
:100B5C00BB8C43F48043BB84BB8CC3F30B03002BD3
:100B6C0003D1BB8C43F00103BB84BA8CFB8C1343C5
:100B7C009BB26FEA43436FEA5343FB847B8C4FF485
:100B8C00967202FB03F31E4A82FB03129211DB17CF
:100B9C00D31A9BB201339AB27B681A847B68FA8CA5
:100BAC009A837B681B889BB243F001039AB27B68E3
:100BBC001A807B681B88FB84FB8C23F4816323F0F5
:100BCC000203FB843B689A883B685B8913439AB2A7
:100BDC00FB8C1343FB847B68FA8C1A803B689A89E4
:100BEC003B681B8913439AB27B681A8100BF283774
:100BFC00BD4680BD00127A0083DE1B43A086010037
:100C0C00D34D621080B483B000AF78600B46FB709C
:100C1C00FB78002B08D07B681B889BB243F0010348
:100C2C009AB27B681A8007E07B681B889BB223F022
:100C3C0001039AB27B681A8000BF0C37BD465DF881
:100C4C00047B704780B483B000AF78600B46FB70B8
:100C5C00FB78002B08D07B681B889BB243F4807315
:100C6C009AB27B681A8007E07B681B889BB223F4DE
:100C7C0080739AB27B681A8000BF0C37BD465DF852
:100C8C00047B704780B483B000AF78600B46FB7078
:100C9C00FB78002B08D07B681B889BB243F4007355
:100CAC009AB27B681A8007E07B681B889BB223F49E
:100CBC0000739AB27B681A8000BF0C37BD465DF892
:100CCC00047B704780B483B000AF78600B46FB7038
:100CDC001346BB70BB78002B04D0FB7843F00103A8
:100CEC00FB7003E0FB7823F00103FB70FB789AB2F6
:100CFC007B681A8200BF0C37BD465DF8047B7047D9
:100D0C0080B483B000AF78600B46FB70FB78002B8F
:100D1C0008D07B681B889BB243F480639AB27B68D3
:100D2C001A8007E07B681B889BB223F480639AB21D
:100D3C007B681A8000BF0C37BD465DF8047B70479A
:100D4C0080B483B000AF78600B46FB70FB78002B4F
:100D5C000AD07B681B889BB26FEA43436FEA53430C
:100D6C009AB27B681A8007E07B681B889BB2C3F33E
:100D7C000E039AB27B681A8000BF0C37BD465DF833
:100D8C00047B704780B483B000AF78600B467B80E7
:100D9C007B88B3F5006F08D17B681B889BB243F44A
:100DAC0000639AB27B681A8007E07B681B889BB251
:100DBC0023F400639AB27B681A8000BF0C37BD46DF
:100DCC005DF8047B704780B483B000AF78600B464D
:100DDC00FB70FB789AB27B681A8200BF0C37BD4659
:100DEC005DF8047B704780B483B000AF78607B689B
:100DFC001B8A9BB2DBB218460C37BD465DF8047BF0
:100E0C00704780B487B000AF786039600023FB7501
:100E1C0000233B610023FB607B68FB603B681B0F7E
:100E2C003B613B6823F07F433B603B69002B03D065
:100E3C00FB681433FB6005E03B681B0C3B60FB68F4
:100E4C001833FB60FB681A683B681340002B02D018
:100E5C000123FB7501E00023FB75FB7D18461C3755
:100E6C00BD465DF8047B704780B489B000AF7860F4
:100E7C000023FB610023BB6100237B6100233B61EA
:100E8C000023FB600023BB604049404B9A68404BF9
:100E9C0013408B607B681B691B04FB613B483B4B1D
:100EAC009A687B685969FB690B4313438360374924
:100EBC00364BDA68364B1340CB607B689B691B045E
:100ECC00BB613248314BDA687B68D969BB690B432B
:100EDC001343C3602D492D4B1A692D4B13400B61E5
:100EEC007B681B6A1B047B612848284B1A697B684A
:100EFC00596A7B690B43134303612449234B5A6999
:100F0C00234B13404B617B689B6A1B043B611F485E
:100F1C001E4B5A697B68D96A3B690B431343436187
:100F2C001A491A4B9A691B4B13408B611748174B84
:100F3C009A697B6819687B685B6819437B689B6856
:100F4C0019437B68DB680B43134383617B685B6BE2
:100F5C001B02FB607B681B6B1B04BB600B4A0B4BBF
:100F6C00DB6A03F07F43D3620848084BDA6AB9683E
:100F7C00FB6819437B689B6B0B431343C36200BF35
:100F8C002437BD465DF8047B704700BF0068014004
:100F9C0000F800F08F88FE0F80B483B000AF0346DA
:100FAC00FB71FB79002B06D0094A094B9B6943F076
:100FBC000103936105E0064A054B9B6923F001038D
:100FCC00936100BF0C37BD465DF8047B704700BFD2
:100FDC000068014080B483B000AF0346FB71FB791D
:100FEC00002B06D0094A094B9B6943F4803393616B
:100FFC0005E0064A054B9B6923F48033936100BFDF
:10100C000C37BD465DF8047B704700BF006801409B
:10101C0080B483B000AF7860044A7B68536200BF31
:10102C000C37BD465DF8047B704700BF006801407B
:10103C0080B489B000AF786039600023FB61002375
:10104C00BB6100237B6100233B610023FB60002319
:10105C00BB603B685B681B04FB617B685B6803F4EB
:10106C0070427B685A603B681A68FB691A437B685C
:10107C005A603B68DB681B04BB617B689B6803F4AC
:10108C0070427B689A603B689A68BB691A437B68BC
:10109C009A607B681B6923F007027B681A613B68C6
:1010AC001A697B681A613B68DB691B027B613B68D0
:1010BC001B6A1B043B613B685B6A1B06FB607B681D
:1010CC009B697B6800229A613B689A697B691A4329
:1010DC003B691A43FB681A437B689A617B685B69BE
:1010EC0023F0FF027B685A613B685A697B685A613E
:1010FC007B68DB6923F4E06323F007037A68D36130
:10110C003B689A6A3B68DB6A1A437B68DA617B68E6
:10111C009B6A7B6800229A623B681A6B7B689A62B6
:10112C003B689B6B1B04BB607B68DB6A03F0E022B3
:10113C007B68DA623B685A6BBB681A437B68DA627D
:10114C007B681B6B23F4FF6323F007037A6813633C
:10115C003B68DA6B7B681A6300BF2437BD465DF8C9
:10116C00047B704780B483B000AF78600B46FB7093
:10117C00FB78002B06D07B681B6843F001027B6870
:10118C001A6005E07B681B6823F001027B681A601B
:10119C0000BF0C37BD465DF8047B704780B483B04C
:1011AC0000AF0346FB71064B00221A70044AFB7910
:1011BC00137000BF0C37BD465DF8047B704700BF51
:1011CC000238024080B483B000AF0346FB71044A7E
:1011DC00FB79136000BF0C37BD465DF8047B70478C
:1011EC006000474280B485B000AFF860B9607A60A7
:1011FC000849FB689A01BB681B061A437B681B07EE
:10120C001343C1F8883000BF1437BD465DF8047B2A
:10121C00704700BF0038024080B483B000AF034673
:10122C00FB71044AFB79136000BF0C37BD465DF8B7
:10123C00047B70477000474280B485B000AF786083
:10124C000023FB60094B9B68FB60FB6823F00303E6
:10125C00FB60FA687B681343FB60044AFB6893608D
:10126C0000BF1437BD465DF8047B70470038024060
:10127C0080B400AF054B9B68DBB203F00C03DBB210
:10128C001846BD465DF8047B704700BF003802402D
:10129C0080B489B000AF78600023BB6100237B6110
:1012AC000023FB6102233B610023FB600223BB6034
:1012BC00474B9B6803F00C03BB61BB69042B07D045
:1012CC00082B09D0002B3DD17B68424A1A603DE0C7
:1012DC007B68414A1A6039E03D4B5B689B0D03F01B
:1012EC000103FB603A4B5B6803F03F03BB60FB6898
:1012FC00002B0CD0384ABB68B2FBF3F3344A52686B
:10130C009209C2F3080202FB03F3FB610BE0314AC2
:10131C00BB68B2FBF3F32E4A52689209C2F308027F
:10132C0002FB03F3FB612A4B5B681B0C03F003030A
:10133C0001335B003B61FA693B69B2FBF3F27B68FA
:10134C001A6003E07B68234A1A6000BF204B9B683D
:10135C0003F0F003BB61BB691B09BB611F4ABB698E
:10136C0013441B78DBB27B617B681A687B69DA40BB
:10137C007B685A60164B9B6803F4E053BB61BB69F6
:10138C009B0ABB61154ABB6913441B78DBB27B61BA
:10139C007B685A687B69DA407B689A600C4B9B6867
:1013AC0003F46043BB61BB695B0BBB610B4ABB695C
:1013BC0013441B78DBB27B617B685A687B69DA402B
:1013CC007B68DA6000BF2437BD465DF8047B70474C
:1013DC00003802400024F40000127A0000000020C3
:1013EC0080B485B000AF78600023FB600A4BD3F863
:1013FC008C30FB60FB6823F44033FB60FA687B683D
:10140C001343FB60044AFB68C2F88C3000BF1437EE
:10141C00BD465DF8047B70470038024080B483B051
:10142C0000AF78600B46FB70FB78002B06D00A49A6
:10143C00094B1A6B7B6813430B6306E00649064B9A
:10144C001A6B7B68DB4313400B6300BF0C37BD4644
:10145C005DF8047B704700BF0038024080B483B055
:10146C0000AF78600B46FB70FB78002B06D00A4966
:10147C00094B9A6B7B6813438B6306E00649064B5A
:10148C009A6B7B68DB4313408B6300BF0C37BD4604
:10149C005DF8047B704700BF0038024080B483B015
:1014AC0000AF78600B46FB70FB78002B06D00A4926
:1014BC00094B1A6C7B6813430B6406E00649064B18
:1014CC001A6C7B68DB4313400B6400BF0C37BD46C2
:1014DC005DF8047B704700BF0038024080B483B0D5
:1014EC0000AF78600B46FB70FB78002B06D00A49E6
:1014FC00094B5A6C7B6813434B6406E00649064B58
:10150C005A6C7B68DB4313404B6400BF0C37BD4601
:10151C005DF8047B704700BF0038024080B483B094
:10152C0000AF78600B46FB70FB78002B06D00A49A5
:10153C00094B1A697B6813430B6106E00649064B9D
:10154C001A697B68DB4313400B6100BF0C37BD4647
:10155C005DF8047B704700BF0038024080B483B054
:10156C0000AF78600B46FB70FB78002B06D00A4965
:10157C00094B1A6A7B6813430B6206E00649064B5B
:10158C001A6A7B68DB4313400B6200BF0C37BD4605
:10159C005DF8047B704700BF0038024080B483B014
:1015AC0000AF78600B46FB70FB78002B06D00A4925
:1015BC00094B5A6A7B6813434B6206E00649064B9B
:1015CC005A6A7B68DB4313404B6200BF0C37BD4645
:1015DC005DF8047B704700BF0038024080B487B0D0
:1015EC0000AF0346FB710023FB6000237B610023EB
:1015FC00FB74FB795B09DBB2FB60FB68012B03D14D
:10160C00124B1B687B6109E0FB68022B03D10F4B6B
:10161C001B6F7B6102E00D4B5B6F7B61FB7903F011
:10162C001F03FB607A69FB6822FA03F303F00103E2
:10163C00002B02D00123FB7401E00023FB74FB7C24
:10164C0018461C37BD465DF8047B704700380240D5
:10165C0080B582B000AF78607B682E4A93420AD185
:10166C0001214FF48050FFF799FF00214FF4805077
:10167C00FFF794FF49E07B68274A93420AD1012186
:10168C004FF48040FFF76AFF00214FF48040FFF7D2
:10169C0065FF3AE07B68214A93420AD101214FF45D
:1016AC000040FFF75BFF00214FF40040FFF756FFAF
:1016BC002BE07B681A4A93420AD101214FF4005067
:1016CC00FFF76CFF00214FF40050FFF767FF1CE0A1
:1016DC007B68144A93420AD101214FF48010FFF722
:1016EC005DFF00214FF48010FFF758FF0DE07B6881
:1016FC000D4A934209D101214FF40010FFF74EFF20
:10170C0000214FF40010FFF749FF00BF0837BD461A
:10171C0080BD00BF0030014000380040003C00405C
:10172C0000340140005001400054014080B485B0A9
:10173C0000AF786039600023FB817B681B88FB81DC
:10174C00FB8903F44153FB813B681A883B685B8837
:10175C0013439AB23B689B8813439AB23B68DB886D
:10176C0013439AB23B681B8913439AB23B685B895B
:10177C0013439AB23B689B8913439AB23B68DB894B
:10178C0013439AB2FB891343FB817B68FA891A8055
:10179C007B689B8B9BB223F400639AB27B689A8321
:1017AC003B681A8A7B681A8200BF1437BD465DF805
:1017BC00047B704780B483B000AF78600B46FB703D
:1017CC00FB78002B08D07B681B889BB243F040034E
:1017DC009AB27B681A8007E07B681B889BB223F067
:1017EC0040039AB27B681A8000BF0C37BD465DF887
:1017FC00047B704780B483B000AF78600B467B806D
:10180C007B687A889A8100BF0C37BD465DF8047BF3
:10181C00704780B485B000AF78600B467B800023A6
:10182C00FB737B681B899AB27B8813409BB2002B9D
:10183C0002D00123FB7301E00023FB73FB7B1846F2
:10184C001437BD465DF8047B704780B500AF00F0DF
:10185C00CFF900F013FA00F077F80346002B01D013
:10186C00042308E000F08AF80121012000F0B0F810
:10187C0000F0D8F80023184680BD000080B584B075
:10188C0000AF402000F0CEFA03469BB203F0800379
:10189C009AB22A4B1A80294B1B88002B30D000F0AF
:1018AC0035F90346FB6000F065F90346BB60244B39
:1018BC001B68FA689A4204D9214B1B68FA68D31A40
:1018CC0003E01F4B1A68FB68D31A7B601D4B1B6827
:1018DC00BA689A4204D91B4B1B68BA68D31A03E046
:1018EC00184B1A68BB68D31A3B607A683B68134480
:1018FC00052B05D9124AFB681360124ABB681360AA
:10190C000F4B1B689AB20D4B5A800E4B1B689AB248
:10191C000A4B9A8000F058F903461A46074BDA80B6
:10192C0001214B2000F0CEF900214B2000F0CAF928
:10193C00024B18461037BD4680BD00BFDC010020AD
:10194C006C0100207001002080B500AF00F026F87B
:10195C0003461A4640F611039A4209D0064B1B68FF
:10196C00002B03D100F038FC034602E0012300E019
:10197C000023184680BD00BF2000002080B500AFBA
:10198C000221032000F09EF9022000F05BFC0021F4
:10199C00032000F097F90023184680BD80B582B073
:1019AC0000AF0023FB80002000F03CFA0346FB80D4
:1019BC00FB881B02FB80012000F034FA03469AB22C
:1019CC00FB881343FB80FB8818460837BD4680BD57
:1019DC0080B584B000AF03460A46FB711346BB7159
:1019EC000023FB73042000F01DFA0346FB73BB7944
:1019FC00002B09D097F90730DB435AB297F90F3017
:101A0C0013405BB2FB7303E0FA7BFB791343FB736C
:101A1C00FB7B1946042000F055F9002318461037BB
:101A2C00BD4680BD80B500AF01210220FFF7D0FF7D
:101A3C004921202000F046F9022000F003FC01218E
:101A4C00212000F03FF900211E2000F035F89A21EA
:101A5C00412000F037F901214A2000F033F901212F
:101A6C004B2000F02FF900214B2000F02BF9012125
:101A7C00562000F027F90121582000F023F903210A
:101A8C00402000F01FF9FF210B2000F01BF9094B3F
:101A9C000022DA80074BDA88064B9A80054B9A882D
:101AAC00044B5A80034B5A88024B1A800023184669
:101ABC0080BD00BFDC01002080B584B000AF0346C0
:101ACC000A46FB711346BB710023FB73172000F011
:101ADC00A9F90346FB73BB79002B04D0FA7BFB7985
:101AEC001343FB7308E097F90730DB435AB297F9BD
:101AFC000F3013405BB2FB73FB7B1946172000F0D1
:101B0C00E1F8002318461037BD4680BD80B582B081
:101B1C0000AF4D2000F074FA03467B607B6840F602
:101B2C00B832934205DC7B68C3F571630E337B607E
:101B3C0004E07B68C3F56D6308337B607B680C4AFB
:101B4C0082FB03121A44D210DB17D31A3B603B689A
:101B5C00002B02DC00233B6004E03B68F02B01DD32
:101B6C00EF233B603B689BB218460837BD4680BDEF
:101B7C008988888880B582B000AF4F2000F040FA89
:101B8C0003463B603B68A3F5B4733B603B680D4A6E
:101B9C0082FB03125210DB17D31A7B607B68002B7D
:101BAC0002DC00237B6006E07B68B3F5A07F02DDDE
:101BBC0040F23F137B607B689BB218460837BD46EA
:101BCC0080BD00BFE9A28B2E80B582B000AF512042
:101BDC0000F016FA03467B607B68002B01D10023D2
:101BEC007B607B689BB218460837BD4680BD000001
:101BFC0080B582B000AF01214FF40000FFF74EFC1E
:101C0C00012140F20510FFF709FC01214FF480403F
:101C1C00FFF764FC01214FF40000FFF79FFC00214B
:101C2C004FF40000FFF79AFC042208211148FEF73C
:101C3C00A3FE042209211048FEF79EFE4FF4807388
:101C4C003B6002233B7102237B710123BB71002398
:101C5C00FB713B4619460748FEF7CAFD4FF400736B
:101C6C003B603B4619460448FEF7C2FD00BF0837EF
:101C7C00BD4680BD000002400008024080B584B023
:101C8C0000AF0023BB804BF6FF73FB8000233B812E
:101C9C004FF480637B814FF48043BB81074B3B60E7
:101CAC003B4619460648FEF7EBFE01210448FEF7B9
:101CBC00A9FF00BF1037BD4680BD00BFA086010044
:101CCC00005C004080B584B000AF03460A46FB714F
:101CDC001346BB710023FB6001214C48FEF7B2FF99
:101CEC004B4B4FF440521A600AE0494B1B685A1E8A
:101CFC0047490A60002B03D100F06EFA034680E0DE
:101D0C0044494248FFF77DF80346002BEDD00022F2
:101D1C0082213E48FEF7D6FF3D4B4FF440521A60ED
:101D2C000AE03B4B1B685A1E39490A60002B03D151
:101D3C0000F052FA034664E037493448FFF761F883
:101D4C000346002BEDD0314B1B8B314B4FF44052E3
:101D5C001A600AE02E4B1B685A1E2D490A60002B94
:101D6C0003D100F039FA03464BE02C492748FFF722
:101D7C0048F80346002BEDD0FB7919462348FFF7B2
:101D8C0022F8234B4FF440521A600AE0204B1B6898
:101D9C005A1E1F490A60002B03D100F01DFA03469E
:101DAC002FE01E491948FFF72CF80346002BEDD005
:101DBC00BB7919461548FFF706F8154B4FF44052FE
:101DCC001A600AE0124B1B685A1E11490A60002B5C
:101DDC0003D100F001FA034613E010490B48FFF75A
:101DEC0010F80346002BEDD00D490848FFF709F811
:101DFC000346002BE6D001210448FEF743FFFB68A5
:101E0C00DBB218461037BD4680BD00BF005C0040F9
:101E1C0020000020010000100200001080000010C3
:101E2C000400001080B584B000AF0346FB710023A2
:101E3C00FB7301216B48FEF705FF6B4B4FF44052CF
:101E4C001A600AE0684B1B685A1E67490A60002B2F
:101E5C0003D100F0C1F90346C0E064496148FEF7C4
:101E6C00D0FF0346002BEDD000215E48FEF748FF63
:101E7C00002282215B48FEF725FF5B4B4FF440525A
:101E8C001A600AE0584B1B685A1E57490A60002B0F
:101E9C0003D100F0A1F90346A0E055495148FEF7E3
:101EAC00B0FF0346002BEDD04E4B1B8B4E4B4FF42B
:101EBC0040521A600AE04C4B1B685A1E4A490A6091
:101ECC00002B03D100F088F9034687E049494548C7
:101EDC00FEF797FF0346002BEDD0FB7919464148DE
:101EEC00FEF771FF404B4FF440521A600AE03E4B34
:101EFC001B685A1E3C490A60002B03D100F06CF998
:101F0C0003466BE03B493748FEF77BFF0346002B4B
:101F1C00EDD039493348FEF774FF0346002BE6D069
:101F2C0001213048FEF78EFE2F4B4FF440521A60C1
:101F3C000AE02D4B1B685A1E2B490A60002B03D15B
:101F4C0000F04AF9034649E028492648FEF759FFB4
:101F5C000346002BEDD0012282212248FEF7B2FE6F
:101F6C00214B4FF440521A600AE01F4B1B685A1E5B
:101F7C001D490A60002B03D100F02EF903462DE019
:101F8C001B491848FEF73DFF0346002BEDD0154BBF
:101F9C001B8B154B4FF440521A600AE0124B1B6816
:101FAC005A1E11490A60002B03D100F015F90346A3
:101FBC0014E012490B48FEF724FF0346002BEDD02A
:101FCC0001210848FEF75EFE0648FEF70CFF0346AB
:101FDC00FB7301210348FEF793FEFB7B1846103779
:101FEC00BD4680BD005C00402000002001000010B8
:101FFC0002000010800000100400001040000010CF
:10200C0080B584B000AF786000233B7300237B73F2
:10201C0001216B48FEF716FE6A4B4FF440521A60D2
:10202C000BE0684B1B685A1E66490A60002B04D1F2
:10203C0000F0D2F803469BB2BEE063496048FEF75D
:10204C00E0FE0346002BECD0002282215C48FEF718
:10205C0039FE5C4B4FF440521A600BE0594B1B6835
:10206C005A1E58490A60002B04D100F0B5F80346FB
:10207C009BB2A1E055495248FEF7C3FE0346002B24
:10208C00ECD04F4B1B8B4F4B4FF440521A600BE074
:10209C004C4B1B685A1E4B490A60002B04D100F0B4
:1020AC009BF803469BB287E049494548FEF7A9FED9
:1020BC000346002BECD07B68DBB219464048FEF798
:1020CC0082FE01213E48FEF7BDFD3E4B4FF44052CF
:1020DC001A600BE03B4B1B685A1E3A490A60002BF6
:1020EC0004D100F079F803469BB265E036493448D8
:1020FC00FEF787FE0346002BECD0012282213048EC
:10210C00FEF7E0FD2F4B4FF440521A600BE02D4BC5
:10211C001B685A1E2B490A60002B04D100F05CF896
:10212C0003469BB248E029492548FEF76AFE034660
:10213C00002BECD000212248FEF7E2FD4FF40061A9
:10214C001F48FEF71FFE1E4B1B8B1E4B4FF44052BD
:10215C001A600BE01B4B1B685A1E1A490A60002BB5
:10216C0004D100F039F803469BB225E01949144814
:10217C00FEF747FE0346002BECD001211048FEF77A
:10218C0081FD0F48FEF72FFE03467B730C48FEF7CC
:10219C002AFE03463B7301210948FEF7B1FD4FF2BD
:1021AC00FF710748FEF7EEFD3B7B1AB27B7B1B02EF
:1021BC001BB213431BB29BB218461037BD4680BDF1
:1021CC00005C004020000020010000100200001004
:1021DC00800000100400001080B584B000AF012115
:1021EC001648FEF74FFD01211448FEF7A9FD00210A
:1021FC001248FEF7A5FDFFF7FBFC1048FEF706FCA6
:10220C000023BB804BF6FF73FB8033233B814FF4E1
:10221C0080637B814FF48043BB81094B3B60012180
:10222C000648FEF7EFFC3B4619460448FEF728FC2F
:10223C00002318461037BD4680BD00BF005C00402F
:10224C00A086010080B485B000AF78600023FB60ED
:10225C007B68084A02FB03F3FB6002E0FB68013B6E
:10226C00FB60FB68002BF9D100BF1437BD465DF84D
:10227C00047B7047A086010080B592B000AF0121AD
:10228C000820FFF7CBF84FF400537B6002237B72DE
:10229C0001233B720023BB720023FB723B1D1946CA
:1022AC002D48FEF7A5FA00F049FC002000F0B2F82A
:1022BC00012000F0AFF800F075FC00F0F7FA0121F6
:1022CC004FF08060FFF70AF901214FF40000FFF78F
:1022DC00A5F800F0CBFC00F09AFD0023FB60002376
:1022EC003B6100237B610023BB610023FB63002364
:1022FC003B6400237B6404220721C020FEF772FF9D
:10230C004FF40030FFF76CF80120FEF785FF00BF9B
:10231C003D20FFF763F90346002BF9D00923FB613D
:10232C0001233B621D237B620323BB6240F20D132E
:10233C00FB6240F243133B6340F217137B6340F2A2
:10234C004713BB6307F10C031846FEF78DFD00BF66
:10235C004837BD4680BD00BF000C024080B590B030
:10236C0000AF1E233B6040F20D137B600423BB6067
:10237C0040F24313FB6002233B61FF237B6100238C
:10238C00BB610023FB6100233B6200237B624FF4A3
:10239C008063BB620523FB6240F2E3137B634FF463
:1023AC00F073BB634FF4A073FB634FF050433B637C
:1023BC003B4619461348FEF73BFE134B3B634FF469
:1023CC00C063BB620723FB623B4619460F48FEF70E
:1023DC002FFE0120FEF71CFE01210A48FEF7C2FE6B
:1023EC0001210A48FEF7BEFE0120FEF711FE084847
:1023FC0000F06EF80120FEF7EDFD00BF4037BD4642
:10240C0080BD00BF84680140000005D00469014014
:10241C001000002080B582B000AF0346FB71FB7941
:10242C00002B04D104210648FEF77FFA03E00421B7
:10243C000348FEF76BFA00BF0837BD4680BD00BFEE
:10244C000008024080B483B000AF78607B68002B3A
:10245C0007D10A4B4FF050421A60094B00221A6008
:10246C0005E0064B074A1A60054B01221A6000BFB3
:10247C000C37BD465DF8047B704700BF2800002078
:10248C007C010020000005D080B483B000AF03466F
:10249C00FB80FB889AB2044B1A8000BF0C37BD46F8
:1024AC005DF8047B704700BF7801002080B483B0D6
:1024BC0000AF0346FB80FB889AB2044B1A8000BF26
:1024CC000C37BD465DF8047B704700BF240000202C
:1024DC0080B483B000AF7860044A7B68136000BF9F
:1024EC000C37BD465DF8047B704700BF74010020BB
:1024FC0080B400AF034B1B681846BD465DF8047BE7
:10250C00704700BF7401002080B485B000AF034653
:10251C00FB800023FB600023FB600AE0FB685A0091
:10252C00094B1B6813441A46FB881380FB68013364
:10253C00FB60FB68B3F5A02FF0D300BF1437BD468A
:10254C005DF8047B704700BF2800002080B487B082
:10255C0000AF03463A60FB800B46BB8000237B61D7
:10256C0000233B610023BB600023FB60FA88134609
:10257C001B019B1A5B01BB60BB88FA681344FB60B0
:10258C0000237B615FE000233B614AE07B695B00D9
:10259C003A6813441B881946314B1B689B88314A97
:1025AC00A2FB0323DB089BB2DB0080229A403B6931
:1025BC0042FA03F30B40002B04D1294B1B689B8878
:1025CC000C2B11D97B695B003A6813441B881A46A3
:1025DC003B6942FA03F303F00103002B10D1204BAB
:1025EC001B689B880C2B0BD9FB685A001E4B1B6875
:1025FC001A44BB6813441A461C4B1B8813800AE010
:10260C00FB685A00184B1B681A44BB6813441A46E3
:10261C00174B1B881380FB680133FB603B6901334C
:10262C003B610F4B1B689B881A463B699A42ADD89D
:10263C000B4B1B689B881A46FB689B1AF033FB609C
:10264C007B6901337B61064B1B68DB881A467B690F
:10265C009A4298D800BF1C37BD465DF8047B704782
:10266C0074010020ABAAAAAA280000202400002094
:10267C007801002080B582B000AF0346FB800B468A
:10268C00BB801346FB70FB78203BFB70094B1B682F
:10269C001A68FB7807490968C98801FB03F35B00DA
:1026AC001A44B988FB881846FFF750FF00BF08375B
:1026BC00BD4680BD7401002080B584B000AF0346D8
:1026CC003960FB800023FB810FE03B681A78F989A5
:1026DC00FB881846FFF7CEFF144B1B689A88FB89C2
:1026EC001344FB813B6801333B60FB89EF2B19D80A
:1026FC003B681B78002B14BF01230023DAB20B4B71
:10270C001B689988FB890B449BB21946074B1B68C5
:10271C009B889942ACBF01230023DBB21340DBB290
:10272C00002BD2D100BF1037BD4680BD74010020F4
:10273C0090B591B000AF0446084611461A462346A0
:10274C00FB800346BB800B467B8013463B800023FB
:10275C00FB6300237B8700233B870023FB86274BEF
:10276C001B88DB0A7B87254B1B8803F01F03FB862A
:10277C00224B1B885B099BB203F03F033B87BA8853
:10278C0013461B019B1A1B011A46FB8813445B0062
:10279C001A461B4B1B681344FB63FDF79FFD4FF45C
:1027AC004033FB6002233B613B8FBB61FB8E7B6143
:1027BC007B8FFB610F233B62FB6B7B627B88C3F1DE
:1027CC00F003BB623B88FB627B883B6307F10C0325
:1027DC001846FDF791FDFDF73FFE00BF0220FDF707
:1027EC004BFE0346002BF9D0044B1B881846FFF711
:1027FC004BFE00BF4437BD4690BD00BF78010020A2
:10280C002800002080B582B000AF0346FB71002287
:10281C004FF400510E4800F0B3F90020FFF7FAFD19
:10282C00FB799BB219460B48FEF7E4FF00BF8021F1
:10283C000848FEF7EEFF0346002BF8D10A2000F003
:10284C00D1FA0120FFF7E6FD00BF0837BD4680BD79
:10285C00000C02400050014080B582B000AF03462E
:10286C00FB7101224FF400510E4800F089F9002051
:10287C00FFF7D0FDFB799BB219460B48FEF7BAFF68
:10288C0000BF80210848FEF7C4FF0346002BF8D197
:10289C000A2000F0A7FA0120FFF7BCFD00BF0837A3
:1028AC00BD4680BD000C02400050014080B500AF19
:1028BC00CA20FFF7A7FFC320FFF7CEFF0820FFF7C2
:1028CC00CBFF5020FFF7C8FFCF20FFF79BFF002066
:1028DC00FFF7C2FFC120FFF7BFFF3020FFF7BCFF9F
:1028EC00ED20FFF78FFF6420FFF7B6FF0320FFF703
:1028FC00B3FF1220FFF7B0FF8120FFF7ADFFE820F8
:10290C00FFF780FF8520FFF7A7FF0020FFF7A4FF4C
:10291C007820FFF7A1FFCB20FFF774FF3920FFF7DA
:10292C009BFF2C20FFF798FF0020FFF795FF34202A
:10293C00FFF792FF0220FFF78FFFF720FFF762FFF0
:10294C002020FFF789FFEA20FFF75CFF0020FFF74C
:10295C0083FF0020FFF780FFB120FFF753FF00201B
:10296C00FFF77AFF1B20FFF777FFB620FFF74AFF30
:10297C000A20FFF771FFA220FFF76EFFC020FFF7C0
:10298C0041FF1020FFF768FFC120FFF73BFF10202D
:10299C00FFF762FFC520FFF735FF4520FFF75CFF0F
:1029AC001520FFF759FFC720FFF72CFF9020FFF7EA
:1029BC0053FF3620FFF726FFC820FFF74DFFF2200C
:1029CC00FFF720FF0020FFF747FFB020FFF71AFFAB
:1029DC00C220FFF741FFB620FFF714FF0A20FFF7D4
:1029EC003BFFA720FFF738FF2720FFF735FF042018
:1029FC00FFF732FF2A20FFF705FF0020FFF72CFF1F
:102A0C000020FFF729FF0020FFF726FFEF20FFF73C
:102A1C0023FF2B20FFF7F6FE0020FFF71DFF002001
:102A2C00FFF71AFF0120FFF717FF3F20FFF714FFF6
:102A3C00F620FFF7E7FE0120FFF70EFF0020FFF75F
:102A4C000BFF0620FFF708FF2C20FFF7DBFEC8204A
:102A5C0000F0C8F92620FFF7D5FE0120FFF7FCFE99
:102A6C00E020FFF7CFFE0F20FFF7F6FE2920FFF73F
:102A7C00F3FE2420FFF7F0FE0C20FFF7EDFE0E20F6
:102A8C00FFF7EAFE0920FFF7E7FE4E20FFF7E4FE12
:102A9C007820FFF7E1FE3C20FFF7DEFE0920FFF770
:102AAC00DBFE1320FFF7D8FE0520FFF7D5FE17201D
:102ABC00FFF7D2FE1120FFF7CFFE0020FFF7CCFE70
:102ACC00E120FFF79FFE0020FFF7C6FE1620FFF760
:102ADC00C3FE1B20FFF7C0FE0420FFF7BDFE112034
:102AEC00FFF7BAFE0720FFF7B7FE3120FFF7B4FE61
:102AFC003320FFF7B1FE4220FFF7AEFE0520FFF7B3
:102B0C00ABFE0C20FFF7A8FE0A20FFF7A5FE28203D
:102B1C00FFF7A2FE2F20FFF79FFE0F20FFF79CFE72
:102B2C001120FFF76FFEC82000F05CF92920FFF799
:102B3C0069FE2C20FFF766FE00BF80BD80B582B019
:102B4C0000AF01210420FEF769FC04233B60022343
:102B5C007B7101233B710023BB710023FB713B464E
:102B6C0019460648FDF744FE01220421034800F0F3
:102B7C0007F800BF0837BD4680BD00BF0008024003
:102B8C0080B582B000AF78600B467B8013467B70BB
:102B9C007A787B8819467868FDF7D6FE00BF08372F
:102BAC00BD4680BD80B588B000AF01212020FEF766
:102BBC0035FC01214FF48010FEF790FC80237B60E4
:102BCC0002237B7202233B720023BB720023FB7235
:102BDC003B1D19462348FDF70BFE4FF480737B60B9
:102BEC003B1D19461F48FDF703FE4FF400737B6035
:102BFC003B1D19461B48FDF7FBFD05220721194813
:102C0C00FDF7BAFE052208211648FDF7B5FE052290
:102C1C0009211448FDF7B0FE1348FEF719FD0023F7
:102C2C00BB814FF48273FB8100233B8200237B82A8
:102C3C000023BB824FF40073FB8208233B830023E9
:102C4C007B830723BB8307F10C0319460648FEF769
:102C5C006DFD01210448FEF7ADFD00BF2037BD46D8
:102C6C0080BD00BF001402400050014080B582B00E
:102C7C0000AF01216F20FEF7D1FB0E220321534838
:102C8C00FDF77AFE0E2204215048FDF775FE0E2248
:102C9C0006214E48FDF770FE0E220B214B48FDF726
:102CAC006BFE0E220C214948FDF766FE41F65803D7
:102CBC003B6002237B7102233B710023BB71002319
:102CCC00FB713B4619464148FDF792FD0922002154
:102CDC003F48FDF751FE092201213D48FDF74CFE0E
:102CEC000E2208213A48FDF747FE0E2209213848EA
:102CFC00FDF742FE0E220A213548FDF73DFE0E225D
:102D0C000B213348FDF738FE40F603733B603B461E
:102D1C0019462F48FDF76CFD0E2206212D48FDF7B4
:102D2C002BFE0E2207212B48FDF726FE0E220A2130
:102D3C002848FDF721FE4FF498633B603B4619464B
:102D4C002448FDF755FD0E2203212348FDF714FE00
:102D5C000E2206212048FDF70FFE48233B603B4620
:102D6C0019461D48FDF744FD0E220A211B48FDF7AC
:102D7C0003FE4FF480633B603B4619461748FDF752
:102D8C0037FD0E2206211648FDF7F6FD0E2207210F
:102D9C001348FDF7F1FD09220A211148FDF7ECFD5E
:102DAC000E220B210E48FDF7E7FD09220C210C48E1
:102DBC00FDF7E2FD4FF4E6533B603B4619460848ED
:102DCC00FDF716FD00BF0837BD4680BD0000024070
:102DDC000004024000080240000C024000140240B3
:102DEC000018024080B485B000AF78600023FB600F
:102DFC007B68FB6002E0FB68013BFB60FB68002B1F
:102E0C00F9D100BF1437BD465DF8047B704780B51F
:102E1C0092B000AF00F036F801210120FEF71EFB46
:102E2C0002233B6007237B600423BB600723FB600A
:102E3C0002233B6102237B610223BB610123FB6103
:102E4C0000233B6204237B621023BB624023FB62A2
:102E5C004FF4C0733B6300237B634FF40063BB638D
:102E6C000023FB634FF400533B643B467B6407F148
:102E7C001C031846FDF79CFB00F010F900BF483707
:102E8C00BD4680BD80B582B000AF01217E20FEF72B
:102E9C00C5FA02233B7102237B710023BB71002313
:102EAC00FB710C2205217748FDF766FD0C220621EB
:102EBC007448FDF761FD60233B603B461946714841
:102ECC00FDF796FC0C2200216F48FDF755FD012300
:102EDC003B603B4619466C48FDF78AFC0C220021EE
:102EEC006A48FDF749FD0C2201216848FDF744FDB5
:102EFC000C2208216548FDF73FFD0C22092163488F
:102F0C00FDF73AFD0C220A216048FDF735FD0C2235
:102F1C000E215E48FDF730FD0C220F215B48FDF7BA
:102F2C002BFD4CF203733B603B4619465748FDF7AB
:102F3C005FFC0C2200215648FDF71EFD0C220121DE
:102F4C005348FDF719FD0C2207215148FDF714FDDC
:102F5C000C2208214E48FDF70FFD0C2209214C488C
:102F6C00FDF70AFD0C220A214948FDF705FD0C224C
:102F7C000B214748FDF700FD0C220C214448FDF7BE
:102F8C00FBFC0C220D214248FDF7F6FC0C220E2115
:102F9C003F48FDF7F1FC0C220F213D48FDF7ECFCFE
:102FAC004FF683733B603B4619463948FDF720FCCE
:102FBC000C2200213748FDF7DFFC0C22012135489B
:102FCC00FDF7DAFC0C2202213248FDF7D5FC0C226D
:102FDC0003213048FDF7D0FC0C2204212D48FDF7CD
:102FEC00CBFC0C2205212B48FDF7C6FC0C220B2137
:102FFC002848FDF7C1FC0C220C212648FDF7BCFC2F
:10300C000C220D212348FDF7B7FC0C220E21214880
:10301C00FDF7B2FC0C220F211E48FDF7ADFC4FF65C
:10302C003F033B603B4619461A48FDF7E1FB0C2277
:10303C0000211948FDF7A0FC0C2201211648FDF7D0
:10304C009BFC0C2204211448FDF796FC0C22052154
:10305C001148FDF791FC0C2208210F48FDF78CFC60
:10306C000C220F210C48FDF787FC48F233133B6010
:10307C003B4619460848FDF7BBFB00BF0837BD4669
:10308C0080BD00BF0004024000080240000C02405A
:10309C0000100240001402400018024080B586B0B7
:1030AC0000AF00237B6101237B600823BB600123FD
:1030BC00FB6000233B6100BF20210120FDF75AFB80
:1030CC000346002BF8D13B1D1846FDF71FFB0A20C9
:1030DC0000F05CF802237B600823BB600123FB60DB
:1030EC0000233B6100BF20210120FDF743FB034679
:1030FC00002BF8D13B1D1846FDF708FB03237B6022
:10310C000823BB600423FB6000233B6100BF20212C
:10311C000120FDF72FFB0346002BF8D13B1D184671
:10312C00FDF7F4FA00BF20210120FDF723FB034635
:10313C00002BF8D13B1D1846FDF7E8FA40F231237D
:10314C007B6104237B600823BB600123FB607B69EC
:10315C003B6100BF20210120FDF70CFB0346002B37
:10316C00F8D13B1D1846FDF7D1FA40F2AB20FDF724
:10317C00EDFA00BF20210120FDF7FCFA0346002BDD
:10318C00F8D100BF1837BD4680BD000080B485B0B3
:10319C0000AF78600023FB607B68084A02FB03F3F6
:1031AC00FB6002E0FB68013BFB60FB68002BF9D184
:1031BC0000BF1437BD465DF8047B7047A086010044
:1031CC0080B485B000AF7860114B1B68BB60EFF327
:1031DC000583FB60FB68002B11D100BF0C4B1A68F8
:1031EC00BB68D21A7B689A42F8D30BE0094B1B6878
:1031FC0003F48033002B02D07B68013B7B607B683F
:10320C00002BF3D100BF1437BD465DF8047B70472B
:10321C008401002010E000E0B0B590B000AF0023B6
:10322C0087F83F30002387F83E30002387F83D3085
:10323C000023BB6307F11C0300221A60C3F80320B0
:10324C007E4A3B4607CA03C31A7007F109030022E2
:10325C001A605A609A60DA600023FB860023BB86F2
:10326C0000237B8600233B860023FB850023BB8544
:10327C0000F02CFE00F0E2FF00F0F8FF00F0B6FFCB
:10328C0001F0D8F807F12403184601F0FDF8FEF719
:10329C00F3FFFFF763F80120FDF77EFE0120FFF737
:1032AC00D1F800F013FD6648FFF712F90020FFF784
:1032BC00FDF84FF6FF70FFF7E7F8FFF719F9034633
:1032CC00DB8860491846FFF7F7F9FEF7D7FA024694
:1032DC005D4B1A605C4B1B681B88002B37D05A4B1C
:1032EC001B685B88BB86584B1B689B883B86564B80
:1032FC001B681B88BB850820FFF762FFFEF7BEFA30
:10330C000246514B1A60504B1B681B88002B09D18D
:10331C00002387F83E304D4A4C4B5B6983F4804365
:10332C00536117E0012387F83E30474B1B685B88DD
:10333C00EF2B0FD0444B1B685B88FB86424B1B6802
:10334C009B887B86404B1B681B88FB8502E0002317
:10335C0087F83E3001F08CF80346012B40F02484B2
:10336C003A4B4FF400521A8397F83E30002B41D061
:10337C0097F83D30002B3DD1FA8EBB8ED31A002B23
:10338C00B8BF5B42022B12DDFA8EBB8ED21A304BC9
:10339C0083FB02131344D911D317C91A0B46DB0054
:1033AC005B1A5B01D11A4BB287F8273002E000237D
:1033BC0087F827307A8E3B8ED31A002BB8BF5B422E
:1033CC00022B11DD7A8E3B8ED31A224A82FB03121A
:1033DC00D111DA178A1A4FF4987101FB02F29A1A7A
:1033EC0053B287F8283002E0002387F828300023F6
:1033FC0087F82930184B1B6903F00103002B2DD0E3
:10340C0097F83F30002B29D1012387F83F300F4B21
:10341C004FF480421A83092387F82430002387F85D
:10342C002730002387F8283007F12403184601F0D1
:10343C004BF80A20FFF7C4FE38E000BF1C800008E0
:10344C0018000020A47F0008800100200018024012
:10345C0093244992F31ACA6B00000240E04B1B699B
:10346C0003F00103002B21D197F83F30012B1DD124
:10347C00002387F83F30DB4B4FF480425A83002304
:10348C0087F82430002387F82530002387F826306E
:10349C00002387F82730002387F8283007F124030E
:1034AC00184601F011F80A20FFF78AFE3B46CE4A77
:1034BC001A60CE4B1B685B881A4607F11C03194631
:1034CC00104600F079FB07F11C023B4611461846EA
:1034DC0004F046FD3B461846FCF782FE03461A46AE
:1034EC003B461344C24A1068186012791A71BF4BDC
:1034FC001B689B881A4607F11C031946104600F0FE
:10350C005BFB07F11C023B461146184604F028FDF4
:10351C003B461846FCF764FE03461A463B461344EA
:10352C00B44A1068186012791A71B04B1B68DB88AA
:10353C001A4607F11C031946104600F03DFB07F133
:10354C001C023B461146184604F00AFD47F6FF7074
:10355C00FEF79AFFFEF7CCFF0346DB885B009BB2BD
:10356C003A4611461846FFF7A7F83B46A24A1C46B6
:10357C0015460FCD0FC42B6823604FF6FF70FEF776
:10358C0083FFFEF7B5FF0346DB889B009BB23A46F0
:10359C0011461846FFF790F83B46934A1A6097F984
:1035AC0027301A4607F11C031946104600F004FB9D
:1035BC0007F11C023B461146184604F0D1FC3B4671
:1035CC001846FCF70DFE03461A463B461344884A40
:1035DC001068186012791A7197F928301A4607F199
:1035EC001C031946104600F0E7FA07F11C023B4693
:1035FC001146184604F0B4FC3B461846FCF7F0FDA7
:10360C0003461A463B4613447C4A106818601279EC
:10361C001A7197F929301A4607F11C0319461046FE
:10362C0000F0CAFA07F11C023B461146184604F09A
:10363C0097FC47F6FF70FEF727FFFEF759FF03468E
:10364C00DB881A46920013449BB23A461146184640
:10365C00FFF732F83B466A4A1A6097F824301A464C
:10366C0007F11C031946104600F0A6FA07F11C02DC
:10367C003B461146184604F073FC3B461846FCF7D3
:10368C00AFFD03461A463B4613445E4A1068186069
:10369C0012791A7197F825301A4607F11C0319464E
:1036AC00104600F089FA07F11C023B4611461846F9
:1036BC0004F056FC3B461846FCF792FD03461A46AE
:1036CC003B461344504A1068186012791A7197F8E7
:1036DC0026301A4607F11C031946104600F06CFA06
:1036EC0007F11C023B461146184604F039FC47F61C
:1036FC00FF70FEF7C9FEFEF7FBFE0346DB881A4699
:10370C00520013445B009BB23A4611461846FEF732
:10371C00D3FF3B463D4A92E8030083E80300FB8E4F
:10372C0007F11C021146184600F046FA07F11C027C
:10373C003B461146184604F013FC3B461846FCF772
:10374C004FFD03461A463B46134431491A460B4675
:10375C0003CB106051601B781372BB8E07F11C02F7
:10376C001146184600F028FA07F11C023B46114698
:10377C00184604F0F5FB4FF4FC60FEF785FEFEF7EF
:10378C00B7FE0346DB88DB009BB23A46114618466F
:10379C00FEF792FF3B461F4A92E8030083E80300C2
:1037AC007B8E07F11C021146184600F005FA07F152
:1037BC001C023B461146184604F0D2FB3B46184609
:1037CC00FCF70EFD03461A463B46134412491A46B3
:1037DC000B4603CB106051601B7813723B8E1DE0BF
:1037EC000000024000180240583A200080010020DE
:1037FC00B87F0008C07F0008C87F0008DC7F000885
:10380C004C3A2000E47F0008EC7F0008F47F0008AD
:10381C00FC7F0008088000081080000807F11C02DB
:10382C001146184600F0C8F907F11C023B46114638
:10383C00184604F095FB4FF4FC60FEF725FEFEF7EE
:10384C0057FE0346DB881A46D20013449BB23A4615
:10385C0011461846FEF730FF97F83E30012B7FF4E7
:10386C0034AD97F83D30002B07D107F124031846EF
:10387C0000F02AFE0A20FFF7A3FCC84B1B685B88EC
:10388C00682B40F20E81C54B1B685B88872B00F2BE
:10389C000881C24B1B689B88D62B40F20281BF4B20
:1038AC001B689B88F52B00F2FC80BB6B0133BB6360
:1038BC00BB6B632B40F2F58097F83D30012B72D136
:1038CC00002387F83D304FF47840FEF7DDFD3C23B4
:1038DC003C22C8210020FEF72BFF3C233C228C21EC
:1038EC005A20FEF725FF3C233C22C821B420FEF7CA
:1038FC001FFF3C233C224FF482715A20FEF718FF25
:10390C001E231E22D7216920FEF712FFA448FEF7C2
:10391C00DFFD0020FEF7B8FD4FF47840FEF7C6FD42
:10392C00FEF7E6FD0346DB881A46D20013449BB231
:10393C003C2216211846FEF79DFEFEF7D9FD0346E4
:10394C00DB881A46D200D31A9BB25E22702118462D
:10395C00FEF790FEFEF7CCFD0346DB881A46D2003C
:10396C0013449BB23E22CA211846FEF783FEFEF793
:10397C00BFFD0346DB881A46520013449B009BB2E2
:10398C003D2270211846FEF775FEFEF7B1FD034689
:10399C00DB881A46D20013449BB258227021184679
:1039AC00FEF768FE71E0012387F83D304FF4FC60B0
:1039BC00FEF76AFD3C233C22C8210020FEF7B8FE2E
:1039CC003C233C228C215A20FEF7B2FE3C233C22A5
:1039DC00C821B420FEF7ACFE3C233C224FF482718C
:1039EC005A20FEF7A5FE1E231E22D7216920FEF7C2
:1039FC009FFE6B48FEF76CFD0020FEF745FD4FF473
:103A0C00FC60FEF753FDFEF773FD0346DB881A4698
:103A1C00D20013449BB23C2216211846FEF72AFE14
:103A2C00FEF766FD0346DB881A46D200D31A9BB21A
:103A3C005E2270211846FEF71DFEFEF759FD034667
:103A4C00DB881A46D20013449BB23E22CA21184688
:103A5C00FEF710FEFEF74CFD0346DB881A465200BB
:103A6C0013449B009BB23D2270211846FEF702FEC8
:103A7C00FEF73EFD0346DB881A46D20013449BB288
:103A8C00582270211846FEF7F5FD0023BB6345480C
:103A9C00FEF71EFD4FF6FF70FEF7F6FC0020FEF75A
:103AAC0005FD002387F82730002387F828303B4B8F
:103ABC001B685B883C2B10D8384B1B689B88C72B2A
:103ACC000BD9364B1B689B88B3F5827F05D8F62340
:103ADC0087F82730002387F82830304B1B685B8829
:103AEC00592B14D92D4B1B685B88962B0FD82B4B5D
:103AFC001B689B888B2B0AD9284B1B689B88C82B6F
:103B0C0005D8002387F82730F62387F82830234B75
:103B1C001B685B88B32B15D9204B1B685B88F02B7B
:103B2C0010D81E4B1B689B88C72B0BD91B4B1B68D3
:103B3C009B88B3F5827F05D80A2387F827300023AA
:103B4C0087F82830154B1B685B88592B16D9134BFB
:103B5C001B685B88962B11D8104B1B689B88B3F5A0
:103B6C00827F0BD30D4B1B689B88B3F5A07F05D8C8
:103B7C00002387F827300A2387F8283097F83D3040
:103B8C00012B7FF4A2AB07F12403184600F09CFC38
:103B9C000A20FFF715FBFFF798BB00BF8001002040
:103BAC001000002018000020024B4FF400525A83E2
:103BBC00FFF78BBB0018024080B487B000AF786071
:103BCC0039600023FB732023FB753B6830221A708D
:103BDC003B68013378221A7000233B616DE03B692E
:103BEC009B007A6842FA03F3DBB203F00F03FB731A
:103BFC00FB7B0F2B52D801A252F823F0493C000852
:103C0C004F3C0008553C00085B3C0008613C000838
:103C1C00673C00086D3C0008733C0008793C0008C8
:103C2C007F3C0008853C00088B3C0008913C000858
:103C3C00973C00089D3C0008A33C00083023FB7512
:103C4C002CE03123FB7529E03223FB7526E033236E
:103C5C00FB7523E03423FB7520E03523FB751DE059
:103C6C003623FB751AE03723FB7517E03823FB75F9
:103C7C0014E03923FB7511E04123FB750EE0422360
:103C8C00FB750BE04323FB7508E04423FB7505E053
:103C9C004523FB7502E04623FB7500BF3B69C3F16E
:103CAC0005031A463B681344FA7D1A703B680633C9
:103CBC0000221A703B6901333B613B69032B8EDD9B
:103CCC0000BF1C37BD465DF8047B704780B500AF64
:103CDC000020FEF719FC0020FEF7E8FBFDF7B5FD10
:103CEC000346002B6FD14FF47840FEF7CDFB3C23FD
:103CFC003C22C8210020FEF71BFD3C233C228C21DA
:103D0C005A20FEF715FD3C233C22C821B420FEF7B7
:103D1C000FFD3C233C224FF482715A20FEF708FD24
:103D2C001E231E22D7216920FEF702FD3C48FEF718
:103D3C00CFFB0020FEF7A8FB4FF47840FEF7B6FB54
:103D4C00FEF7D6FB0346DB881A46D20013449BB21F
:103D5C003C2216211846FEF78DFCFEF7C9FB0346E4
:103D6C00DB881A46D200D31A9BB25E227021184609
:103D7C00FEF780FCFEF7BCFB0346DB881A46D2003C
:103D8C0013449BB23E22CA211846FEF773FCFEF781
:103D9C00AFFB0346DB881A46520013449B009BB2D0
:103DAC003D2270211846FEF765FCFEF7A1FB034689
:103DBC00DB881A46D20013449BB258227021184655
:103DCC00FEF758FC29E04FF47840FEF79DFB0020ED
:103DDC00FEF75AFBFEF78CFB0346DB881A465200B3
:103DEC0013445B009BB20F491846FEF765FCFEF7C7
:103DFC007FFB0346DB881A46D200D31A9BB20A49D2
:103E0C001846FEF759FCFEF773FB0346DB88DB0014
:103E1C009BB206491846FEF74FFC00BF80BD00BFA1
:103E2C0010000020388000084C80000860800008DA
:103E3C00002103E00B4B5B58435004310A480B4BF9
:103E4C0042189A42F6D30A4A02E0002342F8043B95
:103E5C00084B9A42F9D300F039F804F05DF8FFF7FB
:103E6C00DBF97047DC9800080000002050010020AE
:103E7C005001002020080020FEE780B400AF00BFF6
:103E8C00BD465DF8047B704780B400AFFEE780B49C
:103E9C0000AFFEE780B400AFFEE780B400AFFEE7F2
:103EAC0080B400AF00BFBD465DF8047B704780B4A2
:103EBC0000AF00BFBD465DF8047B704780B400AF17
:103ECC0000BFBD465DF8047B7047000080B500AFB5
:103EDC00164A164BD3F8883043F47003C2F8883076
:103EEC00134A134B1B6843F001031360104B002261
:103EFC009A600F4A0E4B1B6823F0847323F48033B3
:103F0C0013600B4B0B4A5A60094A094B1B6823F48C
:103F1C0080231360064B0022DA6000F00DF8034B8F
:103F2C004FF000629A6000BF80BD00BF00ED00E062
:103F3C00003802401030002480B483B000AF00235E
:103F4C007B6000233B60434A424B1B6843F4803345
:103F5C001360404B1B6803F400333B607B680133F8
:103F6C007B603B68002B03D17B68B3F5A04FF0D18D
:103F7C00384B1B6803F40033002B02D001233B6049
:103F8C0001E000233B603B68012B02D1314B324AEC
:103F9C005A60304A2F4B1B6C43F0805313642F4AEA
:103FAC002E4B1B6843F4404313602A4A294B9B68F1
:103FBC009360284A274B9B6843F400439360254A3F
:103FCC00244B9B6843F4A0539360224A214B1B68FB
:103FDC0043F08073136000BF1E4B1B6803F000732B
:103FEC00002BF9D01D4A1D4B1B6843F48033136022
:103FFC0000BF1A4B5B6803F48033002BF9D0174ACF
:10400C00164B1B6843F40033136000BF134B5B6803
:10401C0003F40033002BF9D0114B40F205721A60F7
:10402C000C4A0C4B9B6823F003039360094A094B21
:10403C009B6843F00203936000BF064B9B6803F040
:10404C000C03082BF9D100BF0C37BD465DF8047B7F
:10405C00704700BF00380240085A4007007000400B
:10406C00003C024080B483B000AF03463960FB7162
:10407C0097F90730002B0BDA0D49FB7903F00F038E
:10408C00043B3A68D2B21201D2B20B441A7609E060
:10409C00084997F907303A68D2B21201D2B20B44F0
:1040AC0083F8002300BF0C37BD465DF8047B7047D6
:1040BC0000ED00E000E100E080B582B000AF786078
:1040CC007B68013BB3F1807F01D301230FE00A4AE7
:1040DC007B68013B53600F214FF0FF30FFF7C2FFAD
:1040EC00054B00229A60044B07221A6000231846E5
:1040FC000837BD4680BD00BF10E000E080B582B03F
:10410C0000AF374B1B680133354A1360354B1B68C6
:10411C00002B04D0334B1B68013B324A1360AFF3C6
:10412C0000800023FB7152E0FB792F4A9B00134463
:10413C005B68002B48D0FB792B4A9B0013445B68CF
:10414C001B7B002B40D0FB79274A9B0013445B68F8
:10415C009B68002B38D0FB79234A9B0013445B6887
:10416C009A68013A9A60FB791F4A9B0013445B687A
:10417C009B68002B28D1FB791B4A9B0013445B687E
:10418C001A69FB7918499B000B445B685B691846FC
:10419C009047FB79144A9B0013445A68FB791249E7
:1041AC009B000B445B681B689360FB790E4A9B0079
:1041BC0013445B685B68002B06D1FB790A4A9B00B1
:1041CC0013445B6800221A73FB790133FB71064BB5
:1041DC001B78FA799A42A7D300BF0837BD4680BD39
:1041EC0084010020880100209001002080B500AFE0
:1041FC000D4B1B680D4AA2FB03239B091846FFF7C6
:10420C005BFF0346002B00D0FEE7074B1B689B09A6
:10421C00074AA2FB03239B0A064A1360064B0122A2
:10422C001A7000BF80BD00BF2C000020D34D62105F
:10423C0017916502E40100208C01002080B582B04A
:10424C0002AF0323019300230093002301224FF4B8
:10425C00C041054800F01CF8034B4FF4C0425A8390
:10426C0000BFBD4680BD00BF0018024080B582B0C3
:10427C0002AF0023019302230093002300220121AB
:10428C00024800F005F800BFBD4680BD00000240AA
:10429C0080B584B002AF7860084611461A460346D2
:1042AC007B800B467B7013463B707B88002B0ED0BB
:1042BC00786800F021F838787A7879883B7D01931A
:1042CC003B7C00930346786800F02EF800E000BFBA
:1042DC000837BD4680BD80B483B000AF78607B6882
:1042EC0003F13F4303F57E039B0A9BB218460C3740
:1042FC00BD465DF8047B704780B582B000AF786036
:10430C007868FFF7E8FF03461A46012303FA02F127
:10431C00044A044B1B6B0B43136300BF0837BD46A9
:10432C0080BD00BF0038024080B584B000AF78601B
:10433C00084611461A4603467B800B467B70134693
:10434C003B707868FFF7C7FF0346BB730023FB7312
:10435C0067E07A88FB7B42FA03F303F00103002B3E
:10436C005BD0BB7BBA7B324931F8122011B2FA7B9D
:10437C00012000FA02F212B20A4312B291B22C4A94
:10438C0022F813107B68DB68FA7B5200032101FAD8
:10439C0002F2D2431340397EFA7B520001FA02F248
:1043AC001A437B68DA607B681A68FB7B5B0003212D
:1043BC0001FA03F3DB4313407978FA7B520001FADC
:1043CC0002F21A437B681A607B78012B02D07B784F
:1043DC00022B23D17B685B68FA7B012101FA02F284
:1043EC0092B2D24313403978FA7B01FA02F292B2BC
:1043FC001A437B685A607B689A68FB7B5B000321DD
:10440C0001FA03F3DB431340397FFA7B520001FAC4
:10441C0002F21A437B689A6000E000BFFB7B013319
:10442C00FB73FB7B0F2B94D900BF1037BD4680BDAF
:10443C00A801002080B582B002AF084B0093084B56
:10444C00084A0021084802F0C1FB084B02221A70EE
:10445C00064B1B781846BD4680BD00BF34010020BA
:10446C00A0000020600000202C020020D9010020B8
:10447C0080B400AF034B1B781846BD465DF8047B37
:10448C00704700BFD901002080B483B000AF7860C2
:10449C007B6800221A707B6800225A707B680022AD
:1044AC009A707B680022DA707B6800221A717B6834
:1044BC0000225A71034B1B7818460C37BD465DF829
:1044CC00047B7047D901002080B584B000AF7860C0
:1044DC001B4B1B78012B01D002232DE000233B73D7
:1044EC003A7B7B681B781343DBB23B733B7B5AB242
:1044FC007B685B785B005BB213435BB2DBB23B73F4
:10450C003B7B5AB27B689B789B005BB213435BB2DC
:10451C00DBB23B737B6893F90330DBB27B737B6854
:10452C0093F90430DBB2BB7307F10C030322194679
:10453C00044802F00FFF012318461037BD4680BD1A
:10454C00D90100202C02002080B588B000AF786023
:10455C0001210220FCF762FF4FF44043BB610323AF
:10456C007B7702233B7707F1180319463348FCF796
:10457C003FF90C220E213148FCF7FEF90C220F21D9
:10458C002E48FCF7F9F94FF40053BB6103237B77FA
:10459C0000233B770123BB770023FB7707F118033C
:1045AC0019462648FCF724F94FF48053BB610123CC
:1045BC00BB770123FB7703237B7707F1180319469D
:1045CC001F48FCF715F90C220C211C48FCF7D4F9F8
:1045DC0001214FF00050FCF721FF01214FF08050DA
:1045EC00FCF7BCFF4FF48010FBF7D2FF4FF48013A5
:1045FC003B6100233B7508237B750123BB7507F1D9
:10460C0010031846FBF752FF4FF48010FBF7C0FF66
:10461C004C233B7301237B730423BB730123FB7378
:10462C0007F10C031846FBF7F7FD4FF48010FBF76E
:10463C00AFFF00BF2037BD4680BD00BF0004024065
:10464C000000024080B584B000AF78604FF4C060C9
:10465C00FBF7CEFD4D233B7301237B730323BB730D
:10466C000123FB7307F10C031846FBF7D5FD4FF440
:10467C00C060FBF7BDFD4A233B7301237B73022310
:10468C00BB730123FB7307F10C031846FBF7C4FD46
:10469C004FF4C060FBF7ACFD4B233B7301237B73E2
:1046AC000123BB730123FB7307F10C031846FBF7C3
:1046BC00B3FD00BF1037BD4680BD000080B485B08F
:1046CC0000AF78600023FB607A6813461B019B1ACD
:1046DC00DB001A460A4BA3FB0213D21A52081344EE
:1046EC009B08BB60FB680133FB60FA68BB689A42AD
:1046FC0000D8F7E700BF1437BD465DF8047B704760
:10470C002549922480B582B000AF78607B684FF465
:10471C007A7202FB03F31846FFF7D0FF00BF08378D
:10472C00BD4680BD80B500AF174B9B7A002B25D0C2
:10473C00164A164B1B6923F0060313610120FCF784
:10474C002DFD00BF3120FCF749FF0346002BF9D0AB
:10475C000120FCF737FD00BF3920FCF73FFF034673
:10476C00002BF9D00220FCF767FD00BFFCF780FDA1
:10477C000346082BFAD1044801F080F94FF480105D
:10478C00FBF706FF00BF80BD2C02002000ED00E00F
:10479C0080B500AF024801F0C7FC00BF80BD00BF70
:1047AC002C02002080B500AF024801F027FC00BFAE
:1047BC0080BD00BF2C02002080B500AF024801F084
:1047CC00CFFB00BF80BD00BF2C02002080B485B0A1
:1047DC0000AF78600023FB607B68DB684FF0FF3232
:1047EC005A607B68DB686FF080425A61FB7B43F058
:1047FC008003FB737B7B43F008037B737B68DB6874
:10480C00FA689A6100BF1437BD465DF8047B7047A7
:10481C0080B586B000AF78600023FB7400237B6109
:10482C000023FB600320FFF749FF7B68DB681B69F3
:10483C00FB607B6901337B617B69184A934201D928
:10484C00002326E0FB68C3F3C073DBB2002BE9D076
:10485C0000237B61FB6843F00103FB607B68DB6832
:10486C00FA681A617B68DB681B69FB607B69013342
:10487C007B617B69094A934206D8FB68C3F300034A
:10488C00DBB2012BEED000E000BF0320FFF716FFD8
:10489C00FB7C18461837BD4680BD00BF400D030099
:1048AC0080B489B000AFF860B96011461A460B4667
:1048BC00FB711346BB800023FB76FB68DB78002B77
:1048CC0022D100237B610023FB61BB880333002BC7
:1048DC0000DA03339B107B61FB79FA6832339B005F
:1048EC0013449B683B610023FB6109E0BB681A68B9
:1048FC003B691A60FB690133FB61BB680433BB6025
:10490C00FA697B699A42F1D3FB7E18462437BD467F
:10491C005DF8047B704780B489B000AFF860B96073
:10492C001346FB800023FB61FB880333002B00DA6A
:10493C0003339B10BB61FB68D3F8D0307B61002341
:10494C00FB6109E07B691A68BB681A60FB6901337B
:10495C00FB61BB680433BB60FA69BB699A42F1D353
:10496C00BB6818462437BD465DF8047B70470000D1
:10497C0080B487B000AF78600B46FB7000233B61BE
:10498C000023FB737B680022DA707B6801229A702B
:10499C007B6840229A80FB78012B13D14FF0A04307
:1049AC003B617B680122DA727B6808221A707B6893
:1049BC0004225A707B684FF4A072DA807B68022262
:1049CC001A721AE0FB78002B17D14A4B3B617B68BB
:1049DC000022DA727B680C221A707B6806225A70ED
:1049EC007B684FF4A062DA807B6802221A727B68C3
:1049FC000122DA707B6801229A723A697B68DA606C
:104A0C003B6903F500631A467B681A6100237B61DE
:104A1C001CE07B695A013B69134403F5106319468A
:104A2C007A687B6904339B00134499607B695A0153
:104A3C003B69134403F5306319467A687B69143378
:104A4C009B00134459607B6901337B617B685B7805
:104A5C001A467B699A42DCD83B6903F580631A4697
:104A6C007B685A613B6903F588631A467B68C3F817
:104A7C00CC2000237B610FE07B695A013B69134416
:104A8C0003F5A06319467A687B6922339B001344B3
:104A9C0099607B6901337B617B681B781A467B6963
:104AAC009A42E9D800237B610FE07B691A033B69CA
:104ABC00134403F5805319467A687B6932339B00A3
:104ACC00134499607B6901337B617B681B781A46C0
:104ADC007B699A42E9D83B6903F560631A467B68A7
:104AEC00C3F80C21FB7B18461C37BD465DF8047BD4
:104AFC00704700BF0000044080B586B000AF7860FE
:104B0C000023FB7500233B610023FB600023BB608B
:104B1C007B681B7A012B42D17B68DB689B6BFB604B
:104B2C00BB7B6FF30003BB737B685B7A002B03D0FA
:104B3C00BB7B43F01003BB737B68DB68FA689A633A
:104B4C0000233B617B68DB68DB683B613B7C6FF37C
:104B5C0086133B74BB7C6FF38613BB74BB7C6FF307
:104B6C004103BB74BB7C6FF3C303BB747B68DB6812
:104B7C003A69DA607868FFF74BFE7B68DB78012BCB
:104B8C0039D13B7A052262F344033B723B7A43F002
:104B9C0020033B727B68DB68BA689A602BE07B6809
:104BAC00DB68DB683B613B7C43F040033B747B6818
:104BBC00DB683A69DA607868FFF72AFE0023FB604D
:104BCC00BB7B43F00103BB73BB7B43F00403BB73A0
:104BDC00BB7B43F00803BB737B685B7A002B03D071
:104BEC00BB7B43F01003BB737B68DB68FA689A638A
:104BFC001420FFF787FD7B68DB78012B10D17B68D5
:104C0C00DB689B68BB603B7A052262F344033B7212
:104C1C003B7A43F020033B727B68DB68BA689A608E
:104C2C00FB7D18461837BD4680BD80B485B000AFFB
:104C3C0078600023FB730023BB603B7A43F00103D5
:104C4C003B727B68DB687A68D2689168BA680A4301
:104C5C009A60FB7B18461437BD465DF8047B7047A1
:104C6C0080B485B000AF78600023FB730023BB6079
:104C7C003B7A43F001033B727B68DB687A68D2684D
:104C8C009168BA68D2430A409A60FB7B1846143785
:104C9C00BD465DF8047B704780B586B000AF786088
:104CAC0039600023FB7400237B610023FB60FB68ED
:104CBC0043F02003FB603B68DBB203F01F03DAB266
:104CCC00FB6862F38A13FB607B68DB68FA681A6125
:104CDC007B68DB681B69FB607B6901337B617B69EB
:104CEC00094A934206D8FB68C3F34013DBB2012B8D
:104CFC00EED000E000BF0320FFF7E0FCFB7C184681
:104D0C001837BD4680BD00BF400D030080B586B08E
:104D1C0000AF78600023FB7400237B610023FB60F1
:104D2C00FB6843F01003FB607B68DB68FA681A6170
:104D3C007B68DB681B69FB607B6901337B617B698A
:104D4C00094A934206D8FB68C3F30013DBB2012B6C
:104D5C00EED000E000BF0320FFF7B0FCFB7C184650
:104D6C001837BD4680BD00BF400D030080B584B030
:104D7C0000AF78600B46FB700023FB737B68DB682D
:104D8C00DB68BB60FB7A6FF34513FB72FB7A6FF346
:104D9C008613FB72FB78012B04D1FB7A43F02003C2
:104DAC00FB7206E0FB78002B03D1FB7A43F0400347
:104DBC00FB727B68DB68BA68DA603220FFF7A2FC12
:104DCC00FB7B18461037BD4680BD80B483B000AF66
:104DDC0078607B68DB685B6903F0010318460C376D
:104DEC00BD465DF8047B704780B582B000AF78603B
:104DFC007868FFF7EAFF0346012B14BF0123002359
:104E0C00DBB218460837BD4680BD80B485B000AF14
:104E1C0078600023FB607B68DB685B69FB607B6808
:104E2C00DB689B69FA681340FB60FB681846143713
:104E3C00BD465DF8047B704780B485B000AF7860E8
:104E4C000B46FB707B681B691B68FB60FB7803F0EF
:104E5C000303DAB23B7B62F301033B737B681B6990
:104E6C00FA681A6000BF1437BD465DF8047B7047C2
:104E7C0080B58CB000AF7860002387F82B3000230E
:104E8C007B6200233B620023FB610023BB61002398
:104E9C007B617B68D3F80C3100221A607B681B693C
:104EAC001B683B6297F821306FF3C40387F82130FD
:104EBC007B681B693A6A1A607B68DB7A002B57D1D6
:104ECC007B681B7A012B04D100217868FFF7B4FFB3
:104EDC0003E001217868FFF7AFFF7B68DB684FF4D4
:104EEC0000725A628023FB834FF40073BB837B6890
:104EFC00DB68FA699A62BA8BFB8B13449BB23B83D7
:104F0C004FF4BA737B837B68DB68BA69C3F80421FE
:104F1C003A8B7B8B13449BB23B8300237B837B6854
:104F2C00DB68BA69C3F808213A8B7B8B13449BB2BC
:104F3C003B8300237B837B68DB68BA69C3F80C2155
:104F4C003A8B7B8B13449BB23B8300237B837B6824
:104F5C00DB68BA69C3F810213A8B7B8B13449BB284
:104F6C003B8300237B837B68DB68BA69C3F814211D
:104F7C0010217868FFF790FE7868FFF7C7FE7B6812
:104F8C001B6900221A617B681B6900225A617B68CD
:104F9C001B694FF0FF329A617B681B690022DA6152
:104FAC000023FB623AE07A68FB6A04339B001344EB
:104FBC009B681B687B6297F8273023F07F03DBB27A
:104FCC00002B0ED000237B6297F8273043F0400370
:104FDC0087F8273097F8273043F0080387F82730F5
:104FEC0001E000237B627A68FB6A04339B00134464
:104FFC009B687A6A1A607A68FB6A04339B001344D4
:10500C009B6800221A617A68FB6A04339B00134484
:10501C009B68FF229A60FB6A0133FB627B685B78BA
:10502C001A46FB6A9A42BED80023FB6235E07A68C6
:10503C00FB6A14339B0013445B681B68FB60FB7BAF
:10504C0023F07F03DBB2002B0AD00023FB60FB7B39
:10505C0043F04003FB73FB7B43F00803FB7301E05D
:10506C000023FB607A68FB6A14339B0013445B6873
:10507C00FA681A607A68FB6A14339B0013445B6805
:10508C0000221A617A68FB6A14339B0013445B6834
:10509C00FF229A60FB6A0133FB627B685B781A46DD
:1050AC00FB6A9A42C3D800237B617B7D43F00103EA
:1050BC007B757B681B697A68126911697A69D243BE
:1050CC0011407A690A431A617B68DB78012B1BD18A
:1050DC0000233B613B7C43F001033B743B7C43F07E
:1050EC0002033B743B8A402262F38A033B82BB7C03
:1050FC0043F00103BB747B8A402262F349037B8239
:10510C007B681B693A691A63786800F006F897F8AF
:10511C002B3018463037BD4680BD80B584B000AF0B
:10512C0078600023FB730023BB607B68DB68002284
:10513C009A617B68DB686FF080425A617868FFF790
:10514C0045FB7B68DB78002B03D13B7A43F01003E3
:10515C003B727B7A43F008037B727B7A43F010033B
:10516C007B727B7A43F020037B72BB7A43F004039F
:10517C00BB72BB7A43F00803BB723B7A43F0080363
:10518C003B72BB7A43F01003BB72BB7A43F0200333
:10519C00BB72FB7A43F04003FB723B7A43F004038F
:1051AC003B727B68DB687A68D2689169BA68D243D3
:1051BC001140BA680A439A61FB7B18461037BD460A
:1051CC0080BD80B485B000AF78600023FB737B6832
:1051DC001B699B68BB603B7AC3F34103DBB2022BB8
:1051EC0009D0032B04D0012B02D00323FB7305E061
:1051FC000223FB7302E00123FB7300BFFB7B184609
:10520C001437BD465DF8047B704780B487B000AF9F
:10521C0078600023FB750023BB607B681B699B686F
:10522C003B617B689B691B68FB603B7CC3F3410360
:10523C00DBB2022B04D0BB896FF30A03BB8105E000
:10524C00BB89032262F30A03BB8100BF7B689B69A5
:10525C00FA681A607B7A43F001037B727B681B69E6
:10526C007A6812695168BA68D2431140BA680A4325
:10527C005A60FB7D18461C37BD465DF8047B7047B1
:10528C0080B487B000AF786039600023FB740023D2
:10529C00FB600023BB603B685B78012B0FD13B6844
:1052AC001B787A6804339B0013449B687B613B68D2
:1052BC001B781A46012393409BB23B810EE03B685E
:1052CC001B787A6814339B0013445B687B613B68E2
:1052DC001B781A46012393409BB27B817B691B6828
:1052EC00FB607B7B23F07F03DBB2002B27D13B6879
:1052FC009B689BB2C3F30A039AB2BB8962F30A039D
:10530C00BB813B68DB7803F00303DAB2BB7B62F34F
:10531C008303BB733B68DB88DBB203F00F03DAB2A9
:10532C00FB8962F38913FB81FB7B43F01003FB7356
:10533C007B7B43F080037B73FA687B691A603B6864
:10534C001B78012B0CD17B68DB7A002B08D17B6896
:10535C001B697A681269D16BBA680A43DA6307E091
:10536C007B681B697A681269D169BA680A43DA6189
:10537C00FB7C18461C37BD465DF8047B704780B437
:10538C0087B000AF786039600023FB740023FB60AA
:10539C000023BB603B685B78012B0FD13B681B780B
:1053AC007A6804339B0013449B687B613B681B78D1
:1053BC001A46012393409BB23B810EE03B681B785D
:1053CC007A6814339B0013445B687B613B681B78E1
:1053DC001A46012393409BB27B817B7B6FF3C713EF
:1053EC007B73FA687B691A603B681B78012B0DD1C3
:1053FC007B68DB7A002B09D17B681B697A681269A0
:10540C00D16BBA68D2430A40DA6308E07B681B6947
:10541C007A681269D169BA68D2430A40DA61FB7CB6
:10542C0018461C37BD465DF8047B704780B588B0C4
:10543C0000AF786039600023FB770023BB61002349
:10544C007B6100233B613B685B78012B40F0AB80B8
:10545C003B681B787A6804339B0013449B681B6879
:10546C007B613B681B787A6804339B0013449B6810
:10547C001B693B613B685B69002B09D13B696FF38E
:10548C0012033B617B8A012262F3CC037B8222E014
:10549C003B685B69C3F312023B6962F312033B6125
:1054AC003B685A693B689B6813445A1E3B689B686F
:1054BC00B2FBF3F39BB2C3F309039AB27B8A62F398
:1054CC00CC037B823B68DB78012B04D1FB7C012273
:1054DC0062F34613FB743B681B787A6804339B00B9
:1054EC0013449B683A691A617B68DB78012B0AD1FB
:1054FC003B681B787A6804339B0013449B683A68BA
:10550C0012695A6115E03B68DB78012B11D03B68BE
:10551C005B69002B0DD03B681B781A460123934026
:10552C00BB617B681B697A681269516BBA690A4363
:10553C005A633B68DB78012B14D17B681B699B6831
:10554C00FB60FB68C3F30D239BB203F00103002B3C
:10555C0004D1FB7D43F02003FB7503E0FB7D43F09E
:10556C001003FB75FB7D43F00403FB75FB7D43F0DF
:10557C008003FB753B681B787A6804339B001344EB
:10558C009B687A691A603B68DB78012B40F0898054
:10559C003B68D9683B681A783B685B699BB2786852
:1055AC00FFF77EF97DE03B681B787A6814339B002B
:1055BC0013445B681B687B613B681B787A68143307
:1055CC009B0013445B681B693B613B685B69002B68
:1055DC000DD13B689B68C3F312023B6962F3120363
:1055EC003B617B8A012262F3CC037B8220E03B6827
:1055FC005A693B689B6813445A1E3B689B68B2FB14
:10560C00F3F39BB2C3F309039AB27B8A62F3CC0324
:10561C007B827B8AC3F3C9039BB21A463B689B68A7
:10562C0003FB02F3C3F312023B6962F312033B6107
:10563C003B681B787A6814339B0013445B683A69A7
:10564C001A617B68DB78012B09D13B681B787A687F
:10565C0014339B0013445B683A6812695A613B68C7
:10566C00DB78012B0CD13B685B79002B04D0FB7DE4
:10567C0043F02003FB7503E0FB7D43F01003FB7547
:10568C00FB7D43F00403FB75FB7D43F08003FB754E
:10569C003B681B787A6814339B0013445B687A6907
:1056AC001A60FB7F18462037BD4680BD80B489B098
:1056BC0000AF786039600023FB770023BB610023C7
:1056CC003B610023BB603B685B78012B70D17B682E
:1056DC009B697B617B691B683B617B691B69BB6058
:1056EC003B685B69002B09D13B7A6FF306033B7275
:1056FC00BB7A012262F3C403BB7223E03B685A6994
:10570C003B689B689A420ED93B689A683B685A6121
:10571C003B689B68DBB203F07F03DAB23B7A62F33F
:10572C0006033B7209E03B685B69DBB203F07F0365
:10573C00DAB23B7A62F306033B72BB7A012262F364
:10574C00C403BB72BA687B691A617B68DB78012B76
:10575C0009D13B681B787A6804339B0013449B681F
:10576C003A6812695A61FB7C43F00403FB74FB7CBE
:10577C0043F08003FB743A697B691A607B68DB78C1
:10578C00002B76D13B685B69002B72D03B681B7891
:10579C001A46012393401A46BB691343BB617B68CD
:1057AC001B697A681269516BBA690A435A6360E0E3
:1057BC003B681B787A6814339B0013445B681B6846
:1057CC003B613B681B787A6814339B0013445B681D
:1057DC001B69BB603B685B69002B0FD13B689B6806
:1057EC00DBB203F07F03DAB23B7A62F306033B725F
:1057FC00BB7A012262F3C403BB7212E03B689A6865
:10580C003B685A613B689B68DBB203F07F03DAB2FA
:10581C003B7A62F306033B72BB7A012262F3C40348
:10582C00BB723B681B787A6814339B0013445B682B
:10583C00BA681A617B68DB78012B09D13B681B784D
:10584C007A6814339B0013445B683A6812695A6196
:10585C00FB7C43F00403FB74FB7C43F08003FB7480
:10586C003B681B787A6814339B0013445B683A6975
:10587C001A60FB7F18462437BD465DF8047B7047E1
:10588C0080B487B000AF786039600023FB750023CB
:10589C00FB603B685B78012B1CD13B681B787A68FA
:1058AC0004339B0013449B683B613B691B68FB60A2
:1058BC00FB7B23F07F03DBB2002B03D0FB7B43F09D
:1058CC004003FB73BB7B43F02003BB73FA683B695B
:1058DC001A6011E03B681B787A6814339B00134400
:1058EC005B683B613B691B68FB60BB7B43F020033F
:1058FC00BB73FA683B691A60FB7D18461C37BD46C2
:10590C005DF8047B704780B487B000AF7860396075
:10591C000023FB740023FB603B685B78012B08D1F0
:10592C003B681B787A6804339B0013449B687B614B
:10593C0007E03B681B787A6814339B0013445B6860
:10594C007B617B691B68FB60BB7B6FF34513BB738F
:10595C003B68DB78032B03D03B68DB78022B03D14D
:10596C00FB7B43F01003FB73FA687B691A60FB7CCA
:10597C0018461C37BD465DF8047B704780B485B073
:10598C0000AF78607B681B699B69FB607B681B6957
:10599C00DB69FA681340FB60FB681B0C1846143774
:1059AC00BD465DF8047B704780B485B000AF78606D
:1059BC000B46FB70FB787A6814339B0013445B68CE
:1059CC009B68FB607B681B695B69FA681340FB6032
:1059DC00FB6818461437BD465DF8047B704780B4ED
:1059EC0085B000AF78607B681B699B69FB607B6846
:1059FC001B69DB69FA681340FB60FB689BB21846B5
:105A0C001437BD465DF8047B704780B487B000AF97
:105A1C00786000233B61FB7C43F0C003FB74BB7CD0
:105A2C00012262F3C403BB743B7C182262F30603AD
:105A3C003B747B685B6D3A691A617B68DB78012B80
:105A4C0016D10023FB607B685B6D7A6802F2CC5246
:105A5C005A617B685B6D1B68FB60FB7B43F08003CA
:105A6C00FB734FF08023FB607B685B6DFA681A60F8
:105A7C0000BF1C37BD465DF8047B704780B485B011
:105A8C0000AF78607B689B7A002B1BD07B681B690E
:105A9C009B68FB603B7B03F00103DBB2002B11D056
:105AAC007B6803F586731B68BB603B7A6FF341031D
:105ABC003B723B7A6FF300033B727B68D3F80C317B
:105ACC00BA681A6000BF1437BD465DF8047B704796
